{
  "address": "0xe7A8C0F1513F2Ba0f42D74e11334bB861dbf6DB3",
  "abi": [
    {
      "inputs": [
        {
          "internalType": "address",
          "name": "_factory",
          "type": "address"
        }
      ],
      "stateMutability": "nonpayable",
      "type": "constructor"
    },
    {
      "anonymous": false,
      "inputs": [
        {
          "indexed": true,
          "internalType": "address",
          "name": "tokenAddress",
          "type": "address"
        },
        {
          "indexed": true,
          "internalType": "address",
          "name": "provider",
          "type": "address"
        },
        {
          "indexed": false,
          "internalType": "uint256",
          "name": "tokenAmount",
          "type": "uint256"
        },
        {
          "indexed": false,
          "internalType": "uint256",
          "name": "avaxAmount",
          "type": "uint256"
        }
      ],
      "name": "LiquidityAdded",
      "type": "event"
    },
    {
      "anonymous": false,
      "inputs": [
        {
          "indexed": true,
          "internalType": "address",
          "name": "token",
          "type": "address"
        },
        {
          "indexed": true,
          "internalType": "address",
          "name": "provider",
          "type": "address"
        },
        {
          "indexed": false,
          "internalType": "uint256",
          "name": "tokenAmount",
          "type": "uint256"
        },
        {
          "indexed": false,
          "internalType": "uint256",
          "name": "ethAmount",
          "type": "uint256"
        }
      ],
      "name": "LiquidityRemoved",
      "type": "event"
    },
    {
      "inputs": [
        {
          "internalType": "address",
          "name": "_tokenAddress",
          "type": "address"
        },
        {
          "internalType": "uint256",
          "name": "tokenAmount",
          "type": "uint256"
        },
        {
          "internalType": "address[]",
          "name": "contributors",
          "type": "address[]"
        },
        {
          "internalType": "uint256[]",
          "name": "contributorAmounts",
          "type": "uint256[]"
        }
      ],
      "name": "addLiquidity",
      "outputs": [],
      "stateMutability": "payable",
      "type": "function"
    },
    {
      "inputs": [],
      "name": "factory",
      "outputs": [
        {
          "internalType": "address",
          "name": "",
          "type": "address"
        }
      ],
      "stateMutability": "view",
      "type": "function"
    },
    {
      "inputs": [
        {
          "internalType": "address",
          "name": "_tokenAddress",
          "type": "address"
        },
        {
          "internalType": "uint256",
          "name": "tokenAmount",
          "type": "uint256"
        }
      ],
      "name": "getEstimatedEthForTokens",
      "outputs": [
        {
          "internalType": "uint256",
          "name": "",
          "type": "uint256"
        }
      ],
      "stateMutability": "view",
      "type": "function"
    },
    {
      "inputs": [
        {
          "internalType": "address",
          "name": "_tokenAddress",
          "type": "address"
        },
        {
          "internalType": "uint256",
          "name": "ethAmount",
          "type": "uint256"
        }
      ],
      "name": "getEstimatedTokensForEth",
      "outputs": [
        {
          "internalType": "uint256",
          "name": "",
          "type": "uint256"
        }
      ],
      "stateMutability": "view",
      "type": "function"
    },
    {
      "inputs": [
        {
          "internalType": "address",
          "name": "",
          "type": "address"
        }
      ],
      "name": "liquidity",
      "outputs": [
        {
          "internalType": "uint256",
          "name": "",
          "type": "uint256"
        }
      ],
      "stateMutability": "view",
      "type": "function"
    },
    {
      "inputs": [
        {
          "internalType": "address",
          "name": "",
          "type": "address"
        },
        {
          "internalType": "address",
          "name": "",
          "type": "address"
        }
      ],
      "name": "liquidityDepositTime",
      "outputs": [
        {
          "internalType": "uint256",
          "name": "",
          "type": "uint256"
        }
      ],
      "stateMutability": "view",
      "type": "function"
    },
    {
      "inputs": [
        {
          "internalType": "address",
          "name": "_tokenAddress",
          "type": "address"
        },
        {
          "internalType": "uint256",
          "name": "liquidityAmount",
          "type": "uint256"
        }
      ],
      "name": "removeLiquidity",
      "outputs": [],
      "stateMutability": "nonpayable",
      "type": "function"
    },
    {
      "inputs": [
        {
          "internalType": "uint256",
          "name": "_vestingPeriod",
          "type": "uint256"
        }
      ],
      "name": "setVestingPeriod",
      "outputs": [],
      "stateMutability": "nonpayable",
      "type": "function"
    },
    {
      "inputs": [
        {
          "internalType": "address",
          "name": "_tokenAddress",
          "type": "address"
        }
      ],
      "name": "swapEthForToken",
      "outputs": [],
      "stateMutability": "payable",
      "type": "function"
    },
    {
      "inputs": [
        {
          "internalType": "address",
          "name": "_tokenAddress",
          "type": "address"
        },
        {
          "internalType": "uint256",
          "name": "_tokenAmount",
          "type": "uint256"
        }
      ],
      "name": "swapTokenForEth",
      "outputs": [],
      "stateMutability": "nonpayable",
      "type": "function"
    },
    {
      "inputs": [
        {
          "internalType": "address",
          "name": "",
          "type": "address"
        },
        {
          "internalType": "address",
          "name": "",
          "type": "address"
        }
      ],
      "name": "userLiquidity",
      "outputs": [
        {
          "internalType": "uint256",
          "name": "",
          "type": "uint256"
        }
      ],
      "stateMutability": "view",
      "type": "function"
    },
    {
      "inputs": [],
      "name": "vestingPeriod",
      "outputs": [
        {
          "internalType": "uint256",
          "name": "",
          "type": "uint256"
        }
      ],
      "stateMutability": "view",
      "type": "function"
    }
  ],
  "transactionHash": "0x7b89901a48539c7992340f2b211a4ce850fe33ffebc60e7db5e18ee26532f485",
  "args": [
    "0x3402B7F6A3B540Ffeae070e09E38bA8C786beA22"
  ],
  "numDeployments": 1,
  "solcInputHash": "3c5e22c543eec4dc235ae1f53d7b5826",
  "bytecode": "0x6080346100b857601f6110b838819003918201601f19168301916001600160401b038311848410176100bd578084926020946040528339810103126100b857516001600160a01b038116908190036100b857801561008157600080546001600160a01b03191691909117905562093a80600155604051610fe490816100d48239f35b60405162461bcd60e51b815260206004820152600f60248201526e496e76616c696420666163746f727960881b6044820152606490fd5b600080fd5b634e487b7160e01b600052604160045260246000fdfe608060408181526004918236101561001657600080fd5b600092833560e01c91826340bee0ed14610af75750816345fe85b01461094b57816356f641c9146108fe5781637313ee5a146108df57816376c87749146108b657816398147a0a1461086d5781639a20fb5a14610719578163a201ccf61461043d578163a4682db31461040d578163b18ed4461461010a57508063b8c876b1146100d35763c45a0155146100a957600080fd5b346100cf57816003193601126100cf57905490516001600160a01b039091168152602090f35b5080fd5b50346100cf5760203660031901126100cf5760209181906001600160a01b036100fa610b70565b1681526002845220549051908152f35b8284608036600319011261040a57610120610b70565b6001600160401b039360248035949260443592878411610406573660238501121561040657838101359261015384610bd8565b9461016087519687610ba1565b848652602094828688019160051b830101913683116103db578301905b8282106103e3575050506064359889116103df573660238a0112156103df5788820135986101aa8a610bd8565b996101b788519b8c610ba1565b808b5282868c019160051b830101913683116103db5783879101915b8383106103cb57505050506101e9341515610d56565b6101f4881515610e9a565b85516323b872dd60e01b81526001600160a01b03938416919085818061021e8d30338a8501610ca6565b03818c875af19081156103c1578991610394575b5015610361575082875416331460001461030157865b85518110156102af578061025e6001928c610f84565b51838a5260038752888a2086610274848b610f84565b51168b528752610288898b20918254610c18565b90558289528386528789208561029e838a610f84565b51168a52865242888a205501610248565b5095975050507f36f3b2e1a21c19137dd82ec243b0708a1d26b3d1fa1dc49c44c4c366a58781389291505b838652600281528186206102ef348254610c18565b9055815194855234908501523393a380f35b958098507f36f3b2e1a21c19137dd82ec243b0708a1d26b3d1fa1dc49c44c4c366a58781389594508691925052600382528287203388528252828720610348348254610c18565b90558487528152818620338752815242828720556102da565b82600f606492878a519362461bcd60e51b85528401528201526e151c985b9cd9995c8819985a5b1959608a1b6044820152fd5b6103b49150863d88116103ba575b6103ac8183610ba1565b810190610c8e565b8b610232565b503d6103a2565b88513d8b823e3d90fd5b82358152918101918791016101d3565b8980fd5b8680fd5b81356001600160a01b038116810361040257815290860190860161017d565b8a80fd5b8580fd5b80fd5b5050346100cf57806003193601126100cf5760209061043661042d610b70565b60243590610edc565b9051908152f35b8383346100cf57806003193601126100cf57610457610b70565b6001600160a01b03168083526003602090815282842033855281528284205460243593919084116106de5782855285815281852033865281526104a08286205460015490610c18565b42106106a05781516370a0823160e01b81523087820152908082602481875afa918215610696578692610667575b50838652600281526105156105046104fd6104ec868a205489610bef565b878a5260028552868a205490610c25565b9387610bef565b858852600283528488205490610c25565b948215158061065e575b1561061b578587988392876105a49a5260038452868b20338c528452610549878c20918254610d49565b9055868a5260028352858a20610560868254610d49565b905561057b8a80808089335af1610575610cc8565b50610d07565b855163a9059cbb60e01b8152339181019182526020820192909252909788918291604090910190565b03818a885af1958615610611577f3b5c196aff80bb96c03b41c96906b66827014de931d1b36e0ede6ee8caeb4bf99495966105e69189916105f4575b50610e56565b82519586528501523393a380f35b61060b9150833d85116103ba576103ac8183610ba1565b896105e0565b83513d89823e3d90fd5b835162461bcd60e51b8152808901839052601e60248201527f496e73756666696369656e74207769746864726177616c20616d6f756e7400006044820152606490fd5b5085151561051f565b9080925081813d831161068f575b61067f8183610ba1565b81010312610406575190876104ce565b503d610675565b83513d88823e3d90fd5b8590606492519162461bcd60e51b83528201526019602482015278131a5c5d5a591a5d1e481a5cc81cdd1a5b1b081b1bd8dad959603a1b6044820152fd5b8590606492519162461bcd60e51b83528201526016602482015275496e73756666696369656e74206c697175696469747960501b6044820152fd5b905060208060031936011261086957610730610b70565b61073b341515610d56565b83516370a0823160e01b815230848201526001600160a01b0391909116908281602481855afa90811561085f578691610830575b506107d49361079f849284895260028452610799610791898b20549234610bef565b913490610c18565b90610c25565b906107ab821515610c45565b865163a9059cbb60e01b8152339181019182526020820192909252909485918291604090910190565b038188855af1928315610826576002936107f49187916108095750610e56565b8452528120610804348254610c18565b905580f35b6108209150843d86116103ba576103ac8183610ba1565b386105e0565b84513d87823e3d90fd5b90508281813d8311610858575b6108478183610ba1565b8101031261040657516107d461076f565b503d61083d565b85513d88823e3d90fd5b8380fd5b5050346100cf57806003193601126100cf578060209261088b610b70565b610893610b8b565b6001600160a01b0391821683526003865283832091168252845220549051908152f35b5050346100cf57806003193601126100cf576020906104366108d6610b70565b60243590610d95565b5050346100cf57816003193601126100cf576020906001549051908152f35b905034610947578160031936011261094757602092829161091d610b70565b610925610b8b565b6001600160a01b03918216845291865283832091168252845220549051908152f35b8280fd5b91905034610947578060031936011261094757610966610b70565b60243592906001600160a01b03168015610ac25782516370a0823160e01b81523083820152602092908381602481865afa908115610a895784908892610a93575b506109cd6109f392858a5260028352610799896109c78a8d205482610bef565b92610c18565b966109d9881515610c45565b8651809381926323b872dd60e01b83523033888501610ca6565b03818a875af1908115610a89578791610a6c575b5015610a3657506108049291600291610a29878080808a335af1610575610cc8565b8652528320918254610d49565b835162461bcd60e51b8152908101839052601060248201526f7472616e73666572206661696c65642160801b6044820152606490fd5b610a839150843d86116103ba576103ac8183610ba1565b38610a07565b85513d89823e3d90fd5b809250813d8311610abb575b610aa98183610ba1565b810103126103df5751836109cd6109a7565b503d610a9f565b506020606492519162461bcd60e51b8352820152600f60248201526e496e76616c6964206164647265737360881b6044820152fd5b849250346109475760203660031901126109475782546001600160a01b03163303610b2457503560015580f35b602060849262461bcd60e51b8352820152602360248201527f4f6e6c7920666163746f72792063616e207365742076657374696e67207065726044820152621a5bd960ea1b6064820152fd5b600435906001600160a01b0382168203610b8657565b600080fd5b602435906001600160a01b0382168203610b8657565b90601f801991011681019081106001600160401b03821117610bc257604052565b634e487b7160e01b600052604160045260246000fd5b6001600160401b038111610bc25760051b60200190565b81810292918115918404141715610c0257565b634e487b7160e01b600052601160045260246000fd5b91908201809211610c0257565b8115610c2f570490565b634e487b7160e01b600052601260045260246000fd5b15610c4c57565b60405162461bcd60e51b815260206004820152601a602482015279125b9cdd59999a58da595b9d081bdd5d1c1d5d08185b5bdd5b9d60321b6044820152606490fd5b90816020910312610b8657518015158103610b865790565b6001600160a01b03918216815291166020820152604081019190915260600190565b3d15610d02573d906001600160401b038211610bc25760405191610cf6601f8201601f191660200184610ba1565b82523d6000602084013e565b606090565b15610d0e57565b60405162461bcd60e51b8152602060048201526013602482015272115512081d1c985b9cd9995c8819985a5b1959606a1b6044820152606490fd5b91908203918211610c0257565b15610d5d57565b60405162461bcd60e51b815260206004820152601060248201526f09aeae6e840e0e4deecd2c8ca408aa8960831b6044820152606490fd5b610da0821515610d56565b6040516370a0823160e01b8152306004820152906001600160a01b0316602082602481845afa918215610e4a57600092610e16575b5060005260026020526040600020549081158015610e0e575b610e0657826109c761079992610e0395610bef565b90565b505050600090565b508015610dee565b9091506020813d602011610e42575b81610e3260209383610ba1565b81010312610b8657519038610dd5565b3d9150610e25565b6040513d6000823e3d90fd5b15610e5d57565b60405162461bcd60e51b8152602060048201526015602482015274151bdad95b881d1c985b9cd9995c8819985a5b1959605a1b6044820152606490fd5b15610ea157565b60405162461bcd60e51b81526020600482015260136024820152724d7573742070726f7669646520746f6b656e7360681b6044820152606490fd5b610ee7821515610e9a565b6040516370a0823160e01b8152306004820152906001600160a01b0316602082602481845afa918215610e4a57600092610f50575b50600052600260205260406000205480158015610f4857610e0657826109c761079992610e0395610bef565b508115610dee565b9091506020813d602011610f7c575b81610f6c60209383610ba1565b81010312610b8657519038610f1c565b3d9150610f5f565b8051821015610f985760209160051b010190565b634e487b7160e01b600052603260045260246000fdfea26469706673582212209a2899a78df2cd97ecc1f0965259b64490f58d210e04f7a9140b373e0714d1ae64736f6c63430008160033",
  "devdoc": {
    "kind": "dev",
    "methods": {
      "getEstimatedEthForTokens(address,uint256)": {
        "details": "View function to estimate how much ETH will be received for a given token amount"
      },
      "getEstimatedTokensForEth(address,uint256)": {
        "details": "View function to estimate how many tokens will be received for a given ETH amount"
      }
    },
    "version": 1
  },
  "userdoc": {
    "kind": "user",
    "methods": {},
    "version": 1
  },
  "storageLayout": {
    "storage": [
      {
        "astId": 6752,
        "contract": "contracts/NativeLiquidityPool.sol:NativeLiquidityPool",
        "label": "factory",
        "offset": 0,
        "slot": "0",
        "type": "t_address"
      },
      {
        "astId": 6754,
        "contract": "contracts/NativeLiquidityPool.sol:NativeLiquidityPool",
        "label": "vestingPeriod",
        "offset": 0,
        "slot": "1",
        "type": "t_uint256"
      },
      {
        "astId": 6758,
        "contract": "contracts/NativeLiquidityPool.sol:NativeLiquidityPool",
        "label": "liquidity",
        "offset": 0,
        "slot": "2",
        "type": "t_mapping(t_address,t_uint256)"
      },
      {
        "astId": 6764,
        "contract": "contracts/NativeLiquidityPool.sol:NativeLiquidityPool",
        "label": "userLiquidity",
        "offset": 0,
        "slot": "3",
        "type": "t_mapping(t_address,t_mapping(t_address,t_uint256))"
      },
      {
        "astId": 6770,
        "contract": "contracts/NativeLiquidityPool.sol:NativeLiquidityPool",
        "label": "liquidityDepositTime",
        "offset": 0,
        "slot": "4",
        "type": "t_mapping(t_address,t_mapping(t_address,t_uint256))"
      }
    ],
    "types": {
      "t_address": {
        "encoding": "inplace",
        "label": "address",
        "numberOfBytes": "20"
      },
      "t_mapping(t_address,t_mapping(t_address,t_uint256))": {
        "encoding": "mapping",
        "key": "t_address",
        "label": "mapping(address => mapping(address => uint256))",
        "numberOfBytes": "32",
        "value": "t_mapping(t_address,t_uint256)"
      },
      "t_mapping(t_address,t_uint256)": {
        "encoding": "mapping",
        "key": "t_address",
        "label": "mapping(address => uint256)",
        "numberOfBytes": "32",
        "value": "t_uint256"
      },
      "t_uint256": {
        "encoding": "inplace",
        "label": "uint256",
        "numberOfBytes": "32"
      }
    }
  }
}