{
  "address": "0x32F6299FF348A0809286A150d7345B4A9eF099d3",
  "abi": [
    {
      "inputs": [
        {
          "internalType": "uint256",
          "name": "_fee",
          "type": "uint256"
        },
        {
          "internalType": "address",
          "name": "_lzEndpoint",
          "type": "address"
        }
      ],
      "stateMutability": "nonpayable",
      "type": "constructor"
    },
    {
      "inputs": [],
      "name": "InvalidDelegate",
      "type": "error"
    },
    {
      "inputs": [],
      "name": "InvalidEndpointCall",
      "type": "error"
    },
    {
      "inputs": [],
      "name": "LzTokenUnavailable",
      "type": "error"
    },
    {
      "inputs": [
        {
          "internalType": "uint32",
          "name": "eid",
          "type": "uint32"
        }
      ],
      "name": "NoPeer",
      "type": "error"
    },
    {
      "inputs": [
        {
          "internalType": "uint256",
          "name": "msgValue",
          "type": "uint256"
        }
      ],
      "name": "NotEnoughNative",
      "type": "error"
    },
    {
      "inputs": [
        {
          "internalType": "address",
          "name": "addr",
          "type": "address"
        }
      ],
      "name": "OnlyEndpoint",
      "type": "error"
    },
    {
      "inputs": [
        {
          "internalType": "uint32",
          "name": "eid",
          "type": "uint32"
        },
        {
          "internalType": "bytes32",
          "name": "sender",
          "type": "bytes32"
        }
      ],
      "name": "OnlyPeer",
      "type": "error"
    },
    {
      "inputs": [
        {
          "internalType": "address",
          "name": "owner",
          "type": "address"
        }
      ],
      "name": "OwnableInvalidOwner",
      "type": "error"
    },
    {
      "inputs": [
        {
          "internalType": "address",
          "name": "account",
          "type": "address"
        }
      ],
      "name": "OwnableUnauthorizedAccount",
      "type": "error"
    },
    {
      "inputs": [
        {
          "internalType": "address",
          "name": "token",
          "type": "address"
        }
      ],
      "name": "SafeERC20FailedOperation",
      "type": "error"
    },
    {
      "anonymous": false,
      "inputs": [
        {
          "indexed": true,
          "internalType": "address",
          "name": "previousOwner",
          "type": "address"
        },
        {
          "indexed": true,
          "internalType": "address",
          "name": "newOwner",
          "type": "address"
        }
      ],
      "name": "OwnershipTransferred",
      "type": "event"
    },
    {
      "anonymous": false,
      "inputs": [
        {
          "indexed": false,
          "internalType": "uint32",
          "name": "eid",
          "type": "uint32"
        },
        {
          "indexed": false,
          "internalType": "bytes32",
          "name": "peer",
          "type": "bytes32"
        }
      ],
      "name": "PeerSet",
      "type": "event"
    },
    {
      "inputs": [],
      "name": "BASE_REWARD_PERCENTAGE",
      "outputs": [
        {
          "internalType": "uint256",
          "name": "",
          "type": "uint256"
        }
      ],
      "stateMutability": "view",
      "type": "function"
    },
    {
      "inputs": [],
      "name": "TARGET",
      "outputs": [
        {
          "internalType": "uint256",
          "name": "",
          "type": "uint256"
        }
      ],
      "stateMutability": "view",
      "type": "function"
    },
    {
      "inputs": [],
      "name": "TOKEN_LIMIT",
      "outputs": [
        {
          "internalType": "uint256",
          "name": "",
          "type": "uint256"
        }
      ],
      "stateMutability": "view",
      "type": "function"
    },
    {
      "inputs": [
        {
          "components": [
            {
              "internalType": "uint32",
              "name": "srcEid",
              "type": "uint32"
            },
            {
              "internalType": "bytes32",
              "name": "sender",
              "type": "bytes32"
            },
            {
              "internalType": "uint64",
              "name": "nonce",
              "type": "uint64"
            }
          ],
          "internalType": "struct Origin",
          "name": "origin",
          "type": "tuple"
        }
      ],
      "name": "allowInitializePath",
      "outputs": [
        {
          "internalType": "bool",
          "name": "",
          "type": "bool"
        }
      ],
      "stateMutability": "view",
      "type": "function"
    },
    {
      "inputs": [
        {
          "internalType": "address",
          "name": "_token",
          "type": "address"
        },
        {
          "internalType": "uint256",
          "name": "_amount",
          "type": "uint256"
        }
      ],
      "name": "buy",
      "outputs": [],
      "stateMutability": "payable",
      "type": "function"
    },
    {
      "inputs": [
        {
          "internalType": "address",
          "name": "_token",
          "type": "address"
        }
      ],
      "name": "claimReward",
      "outputs": [],
      "stateMutability": "nonpayable",
      "type": "function"
    },
    {
      "inputs": [
        {
          "internalType": "string",
          "name": "_name",
          "type": "string"
        },
        {
          "internalType": "string",
          "name": "_symbol",
          "type": "string"
        },
        {
          "internalType": "string",
          "name": "_metadataURI",
          "type": "string"
        },
        {
          "internalType": "address",
          "name": "_creator",
          "type": "address"
        }
      ],
      "name": "create",
      "outputs": [],
      "stateMutability": "payable",
      "type": "function"
    },
    {
      "inputs": [],
      "name": "endpoint",
      "outputs": [
        {
          "internalType": "contract ILayerZeroEndpointV2",
          "name": "",
          "type": "address"
        }
      ],
      "stateMutability": "view",
      "type": "function"
    },
    {
      "inputs": [],
      "name": "fee",
      "outputs": [
        {
          "internalType": "uint256",
          "name": "",
          "type": "uint256"
        }
      ],
      "stateMutability": "view",
      "type": "function"
    },
    {
      "inputs": [
        {
          "internalType": "address",
          "name": "_token",
          "type": "address"
        },
        {
          "internalType": "uint256",
          "name": "_amount",
          "type": "uint256"
        }
      ],
      "name": "getPriceForTokens",
      "outputs": [
        {
          "internalType": "uint256",
          "name": "",
          "type": "uint256"
        }
      ],
      "stateMutability": "view",
      "type": "function"
    },
    {
      "inputs": [
        {
          "internalType": "uint256",
          "name": "_index",
          "type": "uint256"
        }
      ],
      "name": "getTokenSale",
      "outputs": [
        {
          "components": [
            {
              "internalType": "address",
              "name": "token",
              "type": "address"
            },
            {
              "internalType": "string",
              "name": "name",
              "type": "string"
            },
            {
              "internalType": "string",
              "name": "metadataURI",
              "type": "string"
            },
            {
              "internalType": "address",
              "name": "creator",
              "type": "address"
            },
            {
              "internalType": "uint256",
              "name": "sold",
              "type": "uint256"
            },
            {
              "internalType": "uint256",
              "name": "raised",
              "type": "uint256"
            },
            {
              "internalType": "bool",
              "name": "isOpen",
              "type": "bool"
            },
            {
              "internalType": "bool",
              "name": "isLiquidityCreated",
              "type": "bool"
            }
          ],
          "internalType": "struct Factory.TokenSale",
          "name": "",
          "type": "tuple"
        }
      ],
      "stateMutability": "view",
      "type": "function"
    },
    {
      "inputs": [
        {
          "internalType": "address",
          "name": "",
          "type": "address"
        },
        {
          "internalType": "address",
          "name": "",
          "type": "address"
        }
      ],
      "name": "hasClaimedReward",
      "outputs": [
        {
          "internalType": "bool",
          "name": "",
          "type": "bool"
        }
      ],
      "stateMutability": "view",
      "type": "function"
    },
    {
      "inputs": [
        {
          "components": [
            {
              "internalType": "uint32",
              "name": "srcEid",
              "type": "uint32"
            },
            {
              "internalType": "bytes32",
              "name": "sender",
              "type": "bytes32"
            },
            {
              "internalType": "uint64",
              "name": "nonce",
              "type": "uint64"
            }
          ],
          "internalType": "struct Origin",
          "name": "",
          "type": "tuple"
        },
        {
          "internalType": "bytes",
          "name": "",
          "type": "bytes"
        },
        {
          "internalType": "address",
          "name": "_sender",
          "type": "address"
        }
      ],
      "name": "isComposeMsgSender",
      "outputs": [
        {
          "internalType": "bool",
          "name": "",
          "type": "bool"
        }
      ],
      "stateMutability": "view",
      "type": "function"
    },
    {
      "inputs": [],
      "name": "lzEndpoint",
      "outputs": [
        {
          "internalType": "address",
          "name": "",
          "type": "address"
        }
      ],
      "stateMutability": "view",
      "type": "function"
    },
    {
      "inputs": [
        {
          "components": [
            {
              "internalType": "uint32",
              "name": "srcEid",
              "type": "uint32"
            },
            {
              "internalType": "bytes32",
              "name": "sender",
              "type": "bytes32"
            },
            {
              "internalType": "uint64",
              "name": "nonce",
              "type": "uint64"
            }
          ],
          "internalType": "struct Origin",
          "name": "_origin",
          "type": "tuple"
        },
        {
          "internalType": "bytes32",
          "name": "_guid",
          "type": "bytes32"
        },
        {
          "internalType": "bytes",
          "name": "_message",
          "type": "bytes"
        },
        {
          "internalType": "address",
          "name": "_executor",
          "type": "address"
        },
        {
          "internalType": "bytes",
          "name": "_extraData",
          "type": "bytes"
        }
      ],
      "name": "lzReceive",
      "outputs": [],
      "stateMutability": "payable",
      "type": "function"
    },
    {
      "inputs": [],
      "name": "nativeLiquidityPool",
      "outputs": [
        {
          "internalType": "contract NativeLiquidityPool",
          "name": "",
          "type": "address"
        }
      ],
      "stateMutability": "view",
      "type": "function"
    },
    {
      "inputs": [
        {
          "internalType": "uint32",
          "name": "",
          "type": "uint32"
        },
        {
          "internalType": "bytes32",
          "name": "",
          "type": "bytes32"
        }
      ],
      "name": "nextNonce",
      "outputs": [
        {
          "internalType": "uint64",
          "name": "nonce",
          "type": "uint64"
        }
      ],
      "stateMutability": "view",
      "type": "function"
    },
    {
      "inputs": [],
      "name": "oAppVersion",
      "outputs": [
        {
          "internalType": "uint64",
          "name": "senderVersion",
          "type": "uint64"
        },
        {
          "internalType": "uint64",
          "name": "receiverVersion",
          "type": "uint64"
        }
      ],
      "stateMutability": "pure",
      "type": "function"
    },
    {
      "inputs": [],
      "name": "owner",
      "outputs": [
        {
          "internalType": "address",
          "name": "",
          "type": "address"
        }
      ],
      "stateMutability": "view",
      "type": "function"
    },
    {
      "inputs": [
        {
          "internalType": "uint32",
          "name": "eid",
          "type": "uint32"
        }
      ],
      "name": "peers",
      "outputs": [
        {
          "internalType": "bytes32",
          "name": "peer",
          "type": "bytes32"
        }
      ],
      "stateMutability": "view",
      "type": "function"
    },
    {
      "inputs": [],
      "name": "renounceOwnership",
      "outputs": [],
      "stateMutability": "nonpayable",
      "type": "function"
    },
    {
      "inputs": [
        {
          "internalType": "uint32",
          "name": "dstEid",
          "type": "uint32"
        },
        {
          "internalType": "string",
          "name": "_name",
          "type": "string"
        },
        {
          "internalType": "string",
          "name": "_symbol",
          "type": "string"
        },
        {
          "internalType": "string",
          "name": "_metadataURI",
          "type": "string"
        },
        {
          "internalType": "address",
          "name": "_creator",
          "type": "address"
        },
        {
          "internalType": "bytes",
          "name": "options",
          "type": "bytes"
        }
      ],
      "name": "sendLaunchToRemoteChain",
      "outputs": [],
      "stateMutability": "payable",
      "type": "function"
    },
    {
      "inputs": [
        {
          "internalType": "address",
          "name": "_delegate",
          "type": "address"
        }
      ],
      "name": "setDelegate",
      "outputs": [],
      "stateMutability": "nonpayable",
      "type": "function"
    },
    {
      "inputs": [
        {
          "internalType": "address",
          "name": "_liquidityPool",
          "type": "address"
        }
      ],
      "name": "setLiquidityPool",
      "outputs": [],
      "stateMutability": "nonpayable",
      "type": "function"
    },
    {
      "inputs": [
        {
          "internalType": "uint32",
          "name": "_eid",
          "type": "uint32"
        },
        {
          "internalType": "bytes32",
          "name": "_peer",
          "type": "bytes32"
        }
      ],
      "name": "setPeer",
      "outputs": [],
      "stateMutability": "nonpayable",
      "type": "function"
    },
    {
      "inputs": [
        {
          "internalType": "address",
          "name": "",
          "type": "address"
        },
        {
          "internalType": "uint256",
          "name": "",
          "type": "uint256"
        }
      ],
      "name": "tokenContributors",
      "outputs": [
        {
          "internalType": "address",
          "name": "",
          "type": "address"
        }
      ],
      "stateMutability": "view",
      "type": "function"
    },
    {
      "inputs": [
        {
          "internalType": "address",
          "name": "",
          "type": "address"
        }
      ],
      "name": "tokenToSale",
      "outputs": [
        {
          "internalType": "address",
          "name": "token",
          "type": "address"
        },
        {
          "internalType": "string",
          "name": "name",
          "type": "string"
        },
        {
          "internalType": "string",
          "name": "metadataURI",
          "type": "string"
        },
        {
          "internalType": "address",
          "name": "creator",
          "type": "address"
        },
        {
          "internalType": "uint256",
          "name": "sold",
          "type": "uint256"
        },
        {
          "internalType": "uint256",
          "name": "raised",
          "type": "uint256"
        },
        {
          "internalType": "bool",
          "name": "isOpen",
          "type": "bool"
        },
        {
          "internalType": "bool",
          "name": "isLiquidityCreated",
          "type": "bool"
        }
      ],
      "stateMutability": "view",
      "type": "function"
    },
    {
      "inputs": [
        {
          "internalType": "uint256",
          "name": "",
          "type": "uint256"
        }
      ],
      "name": "tokens",
      "outputs": [
        {
          "internalType": "address",
          "name": "",
          "type": "address"
        }
      ],
      "stateMutability": "view",
      "type": "function"
    },
    {
      "inputs": [],
      "name": "totalTokens",
      "outputs": [
        {
          "internalType": "uint256",
          "name": "",
          "type": "uint256"
        }
      ],
      "stateMutability": "view",
      "type": "function"
    },
    {
      "inputs": [
        {
          "internalType": "address",
          "name": "newOwner",
          "type": "address"
        }
      ],
      "name": "transferOwnership",
      "outputs": [],
      "stateMutability": "nonpayable",
      "type": "function"
    },
    {
      "inputs": [
        {
          "internalType": "address",
          "name": "",
          "type": "address"
        },
        {
          "internalType": "address",
          "name": "",
          "type": "address"
        }
      ],
      "name": "userEthContributions",
      "outputs": [
        {
          "internalType": "uint256",
          "name": "",
          "type": "uint256"
        }
      ],
      "stateMutability": "view",
      "type": "function"
    },
    {
      "inputs": [
        {
          "internalType": "address",
          "name": "",
          "type": "address"
        },
        {
          "internalType": "address",
          "name": "",
          "type": "address"
        }
      ],
      "name": "userTokenContributions",
      "outputs": [
        {
          "internalType": "uint256",
          "name": "",
          "type": "uint256"
        }
      ],
      "stateMutability": "view",
      "type": "function"
    },
    {
      "inputs": [
        {
          "internalType": "uint256",
          "name": "_amount",
          "type": "uint256"
        }
      ],
      "name": "withdraw",
      "outputs": [],
      "stateMutability": "nonpayable",
      "type": "function"
    }
  ],
  "transactionHash": "0x3c735e918d092a0c76116e840fe00c7de3de1bca286416debe54b54bfa95258e",
  "args": [
    "10000000000000000",
    "0x6C7Ab2202C98C4227C5c46f1417D81144DA716Ff"
  ],
  "numDeployments": 1,
  "solcInputHash": "3c5e22c543eec4dc235ae1f53d7b5826",
  "bytecode": "0x60e0346200018c5762006115906001600160401b0390601f38849003908101601f1916820190838211838310176200019157808391604096879485528339810103126200018c578051602090910151916001600160a01b03908184168085036200018c573315620001745760008054336001600160a01b03198216811783559194167f8be0079c531659141344cd1fd0a4f28419497f9722a3daafe3b4186f6b6457e08580a380608052803b15620001705790828092602488518096819363ca5eb5e160e01b83523360048401525af1801562000166576200013f575b50505060a05260c05251615f6d9081620001a88239608051818181610c050152818161106c01528181611141015281816119ed0152611e0a015260a0518181816103360152611399015260c051818181610cc3015281816114500152611f5e0152f35b82116200015257508352388080620000dc565b634e487b7160e01b81526041600452602490fd5b86513d84823e3d90fd5b8280fd5b8551631e4fbdf760e01b815260006004820152602490fd5b600080fd5b634e487b7160e01b600052604160045260246000fdfe608060405260043610156200001357600080fd5b6000803560e01c8063018770201462002363578063031bd4c4146200233c578063036e8cab146200231157806313137d651462001d9457806317442b701462001d705780631fbc147b1462001bc95780632e1a7d4d1462001b2b5780633400288b1462001ab657806347fb20fd1462001a655780634f64b2be1462001a1c5780635e280f1114620019d5578063715018a61462001977578063764394a014620019265780637d25a05e14620018fc5780637e1c0c0914620018dc57806382413eac146200187b57806382cbdc0f14620013075780638da5cb5b14620012de578063980f258f1462000e135780639aaa546c1462000dbd5780639c0ad5ed1462000cf2578063b353aaa71462000cab578063bb0b6a531462000c72578063ca5eb5e11462000bd3578063cc1f2afa1462000bae578063cce7ec13146200059b578063d279c19114620003d9578063d7b7b1b414620003bb578063d8bc3c801462000359578063ddca3f43146200031c578063e11a0bd81462000278578063f2fde38b14620001e95763ff7bd03d14620001aa57600080fd5b34620001e6576060366003190112620001e657604060209163ffffffff620001d16200269a565b16815260018352205460405190602435148152f35b80fd5b5034620001e6576020366003190112620001e65762000207620023ae565b6200021162002837565b6001600160a01b039081169081156200025f576000548260018060a01b0319821617600055167f8be0079c531659141344cd1fd0a4f28419497f9722a3daafe3b4186f6b6457e0600080a380f35b604051631e4fbdf760e01b815260048101849052602490fd5b5034620001e6576040366003190112620001e657620002ff60209160406200029f620023ae565b6001600160a01b0316825260058452902060243590670de0b6b3a764000090620002f690600490838510158062000307575b620002dc906200276f565b620002ee60ff60068301541662002735565b0154620028be565b910490620027a6565b604051908152f35b5069021e19e0c9bab2400000851115620002d1565b5034620001e65780600319360112620001e65760206040517f00000000000000000000000000000000000000000000000000000000000000008152f35b5034620001e6576040366003190112620001e65762000377620023ae565b6001600160a01b03908116825260096020526040822080546024359390841015620001e65750602092620003ab91620024b0565b9190546040519260031b1c168152f35b5034620001e65780600319360112620001e657602060405160038152f35b5034620001e65760209081600319360112620001e657620003f9620023ae565b6001600160a01b038116808352600584526040832060060154909190620004269060081c60ff16620027fd565b818352600884526040832033600052845260ff6040600020541662000563578183526006845260408320336000528452604060002054156200052e576200046f903390620028ec565b908115620004ff57829381845260088152604084209033600052526040600020600160ff19825416179055803b15620004fb576040516340c10f1960e01b81529183918391829084908290620004ca903360048401620027e2565b03925af18015620004f057620004dd5750f35b620004e8906200251e565b620001e65780f35b6040513d84823e3d90fd5b5050fd5b60405162461bcd60e51b8152600481018590526007602482015266085c995dd85c9960ca1b6044820152606490fd5b60405162461bcd60e51b815260048101859052600d60248201526c10b1b7b73a3934b13aba34b7b760991b6044820152606490fd5b60405162461bcd60e51b815260048101859052601060248201526f416c726561647920636c61696d65642160801b6044820152606490fd5b506040366003190112620001e657620005b3620023ae565b6001600160a01b0380821683526005602052604083208054909291602435911615158062000b9f575b620005e79062002735565b670de0b6b3a764000090818110158062000b8a575b62000607906200276f565b6200062660048501926200061c8454620028be565b90830490620027a6565b341062000b5c5760018060a01b0383168552600660205260408520336000526020526040600020541562000aef575b60018060a01b038316855260066020526040852033600052602052604060002062000682828254620027ba565b905560018060a01b0383168552600760205260408520336000526020526040600020620006b1348254620027ba565b905560405163a9059cbb60e01b81529060208280620006d5843360048401620027e2565b0381896001600160a01b0389165af191821562000ae457620007009262000ac0575b508254620027ba565b8091556969e10de76676d0800000600584019162000720348454620027ba565b809355109081159162000aac575b5062000738578280f35b60068201805460ff19811690915560081c60ff161562000756578280f35b6001600160a01b03811683526005602052604083206006810154909190620007859060081c60ff1615620027fd565b6040516370a0823160e01b8152306004820152906020826024816001600160a01b0385165afa91821562000aa157859262000a63575b5060018060a01b03811685526009602052604085209360405192838460208854928381520180988a5260208a20928a5b81811062000a40575050620008039250038562002532565b8351946200082e620008158762002a10565b9662000825604051988962002532565b80885262002a10565b6020870190601f1901368237885b86518110156200088e576001600160a01b038681168b52600760205260408b20600192916200086c838b62002a28565b511660005260205260406000205462000886828b62002a28565b52016200083c565b5060035460405163095ea7b360e01b81529498939792969591949060209082908190620008ca908c906001600160a01b031660048401620027e2565b03818d6001600160a01b0387165af1801562000a3557620009ff575b50600560018060a01b036003541696015494863b15620009fb576040516358c76a2360e11b81526001600160a01b03909216600483015260248201979097526080604482015295516084870181905288969594939260a487019291885b818110620009d8575050506020906003198784030160648801525191828152019190865b818110620009be575050509183809281879503925af18015620004f057620009a2575b5050600601805461ff00191661010017905538808280f35b620009ad906200251e565b620009ba5781386200098a565b5080fd5b825184528997506020938401939092019160010162000967565b82516001600160a01b031685528b99506020948501949092019160010162000943565b8980fd5b62000a259060203d60201162000a2d575b62000a1c818362002532565b810190620027c8565b5038620008e6565b503d62000a10565b6040513d8c823e3d90fd5b84546001600160a01b0316835260019485019489945060209093019201620007eb565b9091506020813d60201162000a98575b8162000a826020938362002532565b8101031262000a9457519038620007bb565b8480fd5b3d915062000a73565b6040513d87823e3d90fd5b6729a2241af62c000091501015386200072e565b62000adc9060203d60201162000a2d5762000a1c818362002532565b5038620006f7565b6040513d88823e3d90fd5b6001600160a01b03831685526009602052604085208054600160401b81101562000b465762000b2491600182018155620024b0565b81546001600160a01b0360039290921b91821b19163390911b17905562000655565b634e487b7160e01b600052604160045260246000fd5b60405162461bcd60e51b815260206004820152600660248201526521707269636560d01b6044820152606490fd5b5069021e19e0c9bab2400000811115620005fc565b50600683015460ff16620005dc565b5034620001e65780600319360112620001e65760206040516729a2241af62c00008152f35b5034620001e6576020366003190112620001e65762000bf1620023ae565b62000bfb62002837565b6001600160a01b037f0000000000000000000000000000000000000000000000000000000000000000811691839190833b1562000c6e5760249083604051958694859363ca5eb5e160e01b85521660048401525af18015620004f05762000c60575080f35b62000c6b906200251e565b80f35b8280fd5b5034620001e6576020366003190112620001e657604060209163ffffffff62000c9a6200246a565b168152600183522054604051908152f35b5034620001e65780600319360112620001e6576040517f00000000000000000000000000000000000000000000000000000000000000006001600160a01b03168152602090f35b5034620001e6576020366003190112620001e6576001600160a01b03906040908262000d1d620023ae565b168152600560205220818154169060ff62000d3b60018301620025e9565b9362000d4a60028401620025e9565b9060038401541692600481015462000d94600660058401549301549362000d85604051998a99610100908b528060208c01528a019062002428565b9088820360408a015262002428565b946060870152608086015260a0850152818116151560c085015260081c16151560e08301520390f35b5034620001e6576040366003190112620001e65760ff604060209262000de2620023ae565b62000dec620023ca565b6001600160a01b039182168352600886528383209116825284522054604051911615158152f35b5060c0366003190112620001e65762000e2b6200246a565b906024356001600160401b038111620009ba5762000e4e903690600401620023f8565b926044356001600160401b038111620011115762000e71903690600401620023f8565b946064356001600160401b038111620012da5762000e94903690600401620023f8565b9062000e9f620023e1565b9160a4356001600160401b038111620012d65736602382011215620012d6579162000f289162000f1762000ee562000f4598979695369060248160040135910162002570565b9b62000f026040519b8c98608060208b015260a08a0191620026ae565b90601f1998898984030160408a0152620026ae565b9186868403016060870152620026ae565b6001600160a01b0390911660808301520390810184528362002532565b6040519062000f5482620024e6565b34825283602083015260405162000f6b8162002502565b848152846020820152604080519162000f8483620024e6565b8683528660208401520152815190813403620012be5760208301518062001131575b50602062000fb48262002864565b93015115156040519060a082018281106001600160401b038211176200111d576080969798620010599160405263ffffffff809516845260208401968752604084019889526060840190815287840192835262001045604051998a98899788976302637a4560e41b8952604060048a0152511660448801525160648701525160a0608487015260e486019062002428565b90518482036043190160a486015262002428565b9051151560c483015233602483015203917f00000000000000000000000000000000000000000000000000000000000000006001600160a01b03165af18015620004f057620010a6575080f35b8060803d60801162001115575b620010bf818362002532565b8101036080811262000c6e57602060405192620010dc8462002502565b8051845201516001600160401b0381168103620011115760206040930152603f190112620001e65762000c6b604051620024e6565b8380fd5b503d620010b3565b634e487b7160e01b88526041600452602488fd5b60405163393f876560e21b8152907f00000000000000000000000000000000000000000000000000000000000000006001600160a01b031690602083600481855afa928315620012b357889362001264575b506001600160a01b038316156200125257604051916323b872dd60e01b602084015233602484015260448301526064820152606481528060a08101106001600160401b0360a0830111176200123e5760a0810160405280516020918891908301826001600160a01b0386165af11562000aa15785513d6200123457506001600160a01b0381163b155b1562000fa657604051635274afe760e01b81526001600160a01b039091166004820152602490fd5b600114156200120c565b634e487b7160e01b87526041600452602487fd5b6040516329b99a9560e11b8152600490fd5b9092506020813d602011620012aa575b81620012836020938362002532565b81010312620012a657516001600160a01b0381168103620012a657913862001183565b8780fd5b3d915062001274565b6040513d8a823e3d90fd5b6040516304fb820960e51b8152346004820152602490fd5b8880fd5b8580fd5b5034620001e65780600319360112620001e657546040516001600160a01b039091168152602090f35b506080366003190112620001e6576004356001600160401b038111620009ba5762001337903690600401620023f8565b91906024356001600160401b03811162000c6e576200135b903690600401620023f8565b906044356001600160401b03811162000a94576200137e903690600401620023f8565b90916064356001600160a01b03811690818103620012a657907f0000000000000000000000000000000000000000000000000000000000000000341062001850571562001848575b604051916134fa91828401928484106001600160401b0385111762001834578493926200143e926200142e9262002a3e87396001600160a01b031680855260c0602086018190529099906200141f9086018e8d620026ae565b918583036040870152620026ae565b82810360608401528587620026ae565b69d3c21bcecceda100000060808301527f00000000000000000000000000000000000000000000000000000000000000006001600160a01b031660a090920191909152039086f093841562000aa157620014ed929190620014e090620014ad6001600160a01b038816620026cf565b620014ba6002546200270f565b60025560405198620014cc8a620024c9565b6001600160a01b0388168a52369162002570565b6020880152369162002570565b604085015260608401528160808401528160a0840152600160c08401528160e084015260018060a01b031681526005602052604081209060018060a01b0383511660018060a01b031983541617825560208301519283516001600160401b0381116200182057620015626001850154620025ac565b601f8111620017d7575b50602094601f8211600114620017695794839495829394926200175d575b50508160011b916000199060031b1c19161760018401555b60408101519283516001600160401b0381116200174957620015c86002830154620025ac565b601f811162001700575b506020601f82116001146200168557918160069260e094879862000c6b989262001679575b50508160011b916000199060031b1c19161760028201555b6003810160018060a01b0360608601511660018060a01b03198254161790556080840151600482015560a0840151600582015501916200166160c08201511515849060ff801983541691151516179055565b0151815461ff00191690151560081b61ff0016179055565b015190503880620015f7565b6002830185526020852095855b601f1984168110620016e757508262000c6b969760e09593600193600696601f19811610620016cd575b505050811b0160028201556200160f565b015160001960f88460031b161c19169055388080620016bc565b8282015188556001909701966020928301920162001692565b60028301855260208520601f830160051c81016020841062001741575b601f830160051c8201811062001735575050620015d2565b8681556001016200171d565b50806200171d565b634e487b7160e01b84526041600452602484fd5b0151905038806200158a565b601f198216956001860185526020852091855b888110620017be57508360019596979810620017a4575b505050811b016001840155620015a2565b015160001960f88460031b161c1916905538808062001793565b919260206001819286850151815501940192016200177c565b60018501845260208420601f830160051c81016020841062001818575b601f830160051c820181106200180c5750506200156c565b858155600101620017f4565b5080620017f4565b634e487b7160e01b83526041600452602483fd5b634e487b7160e01b8a52604160045260248afd5b5033620013c6565b606460405162461bcd60e51b81526020600482015260046024820152632166656560e01b6044820152fd5b5034620001e657366003190160a08112620009ba57606013620001e6576064356001600160401b038111620009ba57620018ba903690600401620023f8565b50506020620018c8620023e1565b6040516001600160a01b0390911630148152f35b5034620001e65780600319360112620001e6576020600254604051908152f35b5034620001e6576040366003190112620001e6576020906200191d6200246a565b50604051908152f35b5034620001e6576040366003190112620001e657604060209162001949620023ae565b62001953620023ca565b6001600160a01b039182168352600785528383209116825283522054604051908152f35b5034620001e65780600319360112620001e6576200199462002837565b80546001600160a01b03198116825581906001600160a01b03167f8be0079c531659141344cd1fd0a4f28419497f9722a3daafe3b4186f6b6457e08280a380f35b5034620001e65780600319360112620001e6576040517f00000000000000000000000000000000000000000000000000000000000000006001600160a01b03168152602090f35b5034620001e6576020366003190112620001e65760043590600454821015620001e657602062001a4c836200247e565b905460405160039290921b1c6001600160a01b03168152f35b5034620001e6576040366003190112620001e657604060209162001a88620023ae565b62001a92620023ca565b6001600160a01b039182168352600685528383209116825283522054604051908152f35b5034620001e6576040366003190112620001e6577f238399d427b947898edb290f5ff0f9109849b1c3ba196a42e35f00c50a54b98b62001af56200246a565b6024359062001b0362002837565b63ffffffff16808452600160209081526040808620849055805192835290820192909252a180f35b5034620001e6576020366003190112620001e65762001b4962002837565b8080808060043560018060a01b038254165af13d1562001bc3573d62001b6f8162002554565b9062001b7f604051928362002532565b81528260203d92013e5b1562001b925780f35b60405162461bcd60e51b815260206004820152600960248201526810ba3930b739b332b960b91b6044820152606490fd5b62001b89565b5034620001e657602080600319360112620009ba576004358260e060405162001bf281620024c9565b828152606085820152606060408201528260608201528260808201528260a08201528260c0820152015260045481101562001d425762001c346040916200247e565b90546001600160a01b0360039290921b1c811684526005835292206040519162001c5e83620024c9565b83825416835262001c7260018301620025e9565b81840190815262001c8660028401620025e9565b91604085019283528560038501541693606086019485526004810154608087019081528762001d1b600660058501549460a08b0195865201549560c08a019560ff88161515875260ff60e08c019860081c16151588526040519b8c9b828d525116908b0152519662001d07610100988960408d01526101208c019062002428565b90518a8203601f190160608c015262002428565b96511660808801525160a08701525160c086015251151560e0850152511515908301520390f35b60405162461bcd60e51b8152600481018390526006602482015265042d2dcc8caf60d31b6044820152606490fd5b5034620001e65780600319360112620001e657604080516001815260026020820152f35b50366003190160e08112620009ba57606013620001e6576084356001600160401b038111620009ba5762001dcd903690600401620023f8565b90919060a4356001600160a01b03811603620009ba5760c4356001600160401b03811162000c6e5762001e05903690600401620023f8565b5050337f00000000000000000000000000000000000000000000000000000000000000006001600160a01b031603620022f95762001e4c62001e466200269a565b62002864565b602435809103620022c75750820191608081840312620009ba5780356001600160401b03811162000c6e578362001e859183016200289d565b9260208201356001600160401b03811162001111578162001ea89184016200289d565b9060408301356001600160401b03811162000a945760609162001ecd9185016200289d565b9201356001600160a01b03811691908290036200111157604051906134fa90818301918383106001600160401b038411176200123e5762001f3d84939262001f4c9262002a3e863986845260c0602085015262001f2e60c085018b62002428565b90848203604086015262002428565b82810360608401528662002428565b69d3c21bcecceda100000060808301527f00000000000000000000000000000000000000000000000000000000000000006001600160a01b031660a090920191909152039084f0918215620022bc5762001faf6001600160a01b038416620026cf565b62001fbc6002546200270f565b6002556040519462001fce86620024c9565b60018060a01b03841686526020860152604085015260608401528160808401528160a0840152600160c08401528160e084015260018060a01b031681526005602052604081209060018060a01b0383511660018060a01b031983541617825560208301519283516001600160401b0381116200182057620020536001850154620025ac565b601f811162002273575b50602094601f821160011462002205579483949582939492620021f9575b50508160011b916000199060031b1c19161760018401555b60408101519283516001600160401b0381116200174957620020b96002830154620025ac565b601f8111620021b0575b506020601f82116001146200215057918160069260e094879862000c6b9892620016795750508160011b916000199060031b1c19161760028201556003810160018060a01b0360608601511660018060a01b03198254161790556080840151600482015560a0840151600582015501916200166160c08201511515849060ff801983541691151516179055565b6002830185526020852095855b601f19841681106200219757508262000c6b969760e09593600193600696601f19811610620016cd57505050811b0160028201556200160f565b828201518855600190970196602092830192016200215d565b60028301855260208520601f830160051c810160208410620021f1575b601f830160051c82018110620021e5575050620020c3565b868155600101620021cd565b5080620021cd565b0151905038806200207b565b601f198216956001860185526020852091855b8881106200225a5750836001959697981062002240575b505050811b01600184015562002093565b015160001960f88460031b161c191690553880806200222f565b9192602060018192868501518155019401920162002218565b60018501845260208420601f830160051c810160208410620022b4575b601f830160051c82018110620022a85750506200205d565b85815560010162002290565b508062002290565b6040513d85823e3d90fd5b620022d16200269a565b60405163309afaf360e21b815263ffffffff9190911660048201526024810191909152604490fd5b6040516391ac5e4f60e01b8152336004820152602490fd5b5034620001e65780600319360112620001e6576003546040516001600160a01b039091168152602090f35b5034620001e65780600319360112620001e65760206040516969e10de76676d08000008152f35b5034620001e6576020366003190112620001e65762002381620023ae565b6200238b62002837565b600380546001600160a01b0319166001600160a01b039290921691909117905580f35b600435906001600160a01b0382168203620023c557565b600080fd5b602435906001600160a01b0382168203620023c557565b608435906001600160a01b0382168203620023c557565b9181601f84011215620023c5578235916001600160401b038311620023c55760208381860195010111620023c557565b919082519283825260005b84811062002455575050826000602080949584010152601f8019910116010190565b60208183018101518483018201520162002433565b6004359063ffffffff82168203620023c557565b6004548110156200249a57600460005260206000200190600090565b634e487b7160e01b600052603260045260246000fd5b80548210156200249a5760005260206000200190600090565b61010081019081106001600160401b0382111762000b4657604052565b604081019081106001600160401b0382111762000b4657604052565b606081019081106001600160401b0382111762000b4657604052565b6001600160401b03811162000b4657604052565b90601f801991011681019081106001600160401b0382111762000b4657604052565b6001600160401b03811162000b4657601f01601f191660200190565b9291926200257e8262002554565b916200258e604051938462002532565b829481845281830111620023c5578281602093846000960137010152565b90600182811c92168015620025de575b6020831014620025c857565b634e487b7160e01b600052602260045260246000fd5b91607f1691620025bc565b90604051918260008254620025fe81620025ac565b9081845260209460019160018116908160001462002676575060011462002633575b505050620026319250038362002532565b565b600090815285812095935091905b8183106200265d57505062002631935082010138808062002620565b8554888401850152948501948794509183019162002641565b925050506200263194925060ff191682840152151560051b82010138808062002620565b60043563ffffffff81168103620023c55790565b908060209392818452848401376000828201840152601f01601f1916010190565b600454600160401b81101562000b4657806001620026f192016004556200247e565b60018060a09493941b038084549260031b9316831b921b1916179055565b60001981146200271f5760010190565b634e487b7160e01b600052601160045260246000fd5b156200273d57565b60405162461bcd60e51b815260206004820152600a60248201526921617661696c61626c6560b01b6044820152606490fd5b156200277757565b60405162461bcd60e51b815260206004820152600760248201526608585b5bdd5b9d60ca1b6044820152606490fd5b818102929181159184041417156200271f57565b919082018092116200271f57565b90816020910312620023c557518015158103620023c55790565b6001600160a01b039091168152602081019190915260400190565b156200280557565b60405162461bcd60e51b815260206004820152600a602482015269216c697175696469747960b01b6044820152606490fd5b6000546001600160a01b031633036200284c57565b60405163118cdaa760e01b8152336004820152602490fd5b63ffffffff1680600052600160205260406000205490811562002885575090565b6024906040519063f6ff4fb760e01b82526004820152fd5b9080601f83011215620023c557816020620028bb9335910162002570565b90565b69021e19e0c9bab24000009004655af3107a400081810291818304036200271f5781018091116200271f5790565b9060018060a01b038092169060009282845260206005815260409260ff6006858820015460081c16158015620029f4575b8015620029d7575b620029cf576005928587526006835284872091168652815282852054938552528220906005820154600381029080820460031490151715620029bb576004916200296f91620027a6565b91015491606483029280840460641490151715620029a75782156200299357500490565b634e487b7160e01b81526012600452602490fd5b634e487b7160e01b81526011600452602490fd5b634e487b7160e01b84526011600452602484fd5b505050505090565b508486526006825283862083821687528252838620541562002925565b50600882528386208382168752825260ff84872054166200291d565b6001600160401b03811162000b465760051b60200190565b80518210156200249a5760209160051b01019056fe60c06040818152346200075a57600091620034fa80380380916200002482856200075f565b833981019260c08285031262000757576200003f8262000799565b60208301516001600160401b03811162000753578562000061918501620007ae565b838501519095906001600160401b0381116200074f578162000085918601620007ae565b60608501519091906001600160401b0381116200074b5790620000aa918601620007ae565b91620000be60a06080870151960162000799565b6001600160a01b03929082841615620007335785548484166001600160a01b031982168117885585929183167f8be0079c531659141344cd1fd0a4f28419497f9722a3daafe3b4186f6b6457e08980a3169788608052883b156200072f5787988680989951809263ca5eb5e160e01b825287871660048301528160249a8b925af180156200072557620006f6575b5064e8d4a5100060a0528051906001600160401b038211620006e357600854600181811c91168015620006d8575b6020821014620006c5579081601f84931162000663575b50602090601f8311600114620005ec578992620005e0575b50508160011b916000199060031b1c1916176008555b8051906001600160401b038211620005cd57600954600181811c91168015620005c2575b6020821014620005af579081601f8493116200054d575b50602090601f8311600114620004d6578892620004ca575b50508160011b916000199060031b1c1916176009555b600a8054919092166001600160a01b03199091161790558051906001600160401b038211620004b757600b54600181811c91168015620004ac575b602082101462000499579081601f84931162000426575b50602090601f83116001146200039e57859262000392575b50508160011b916000199060031b1c191617600b555b33156200037d57600754908382018092116200036b5750600755338152600560205282812082815401905582519182527fddf252ad1be2c89b69c2b068fc378daa952ba7f163c4a11628f55a4df523b3ef60203393a351612c95908162000825823960805181818161096c01528181610e1a0152818161109d0152818161190201528181611a1001528181612a890152612b36015260a051818181610d6401528181611342015281816117b7015281816120300152818161224601526127e20152f35b634e487b7160e01b8352601160045282fd5b9083519063ec442f0560e01b82526004820152fd5b01519050388062000292565b600b86527f0175b7a638427703f0dbe7bb9bbf987a2551717b34e79f33b5b1008d1fa01db99250601f198416865b8181106200040d5750908460019594939210620003f3575b505050811b01600b55620002a8565b015160001960f88460031b161c19169055388080620003e4565b92936020600181928786015181550195019301620003cc565b600b86529091507f0175b7a638427703f0dbe7bb9bbf987a2551717b34e79f33b5b1008d1fa01db9601f840160051c810191602085106200048e575b90601f859493920160051c01905b8181106200047f57506200027a565b86815584935060010162000470565b909150819062000462565b634e487b7160e01b855260226004528385fd5b90607f169062000263565b634e487b7160e01b845260416004528284fd5b01519050388062000212565b60098952600080516020620034da8339815191529250601f198416895b8181106200053457509084600195949392106200051a575b505050811b0160095562000228565b015160001960f88460031b161c191690553880806200050b565b92936020600181928786015181550195019301620004f3565b60098952909150600080516020620034da833981519152601f840160051c81019160208510620005a4575b90601f859493920160051c01905b818110620005955750620001fa565b89815584935060010162000586565b909150819062000578565b634e487b7160e01b885260226004528688fd5b90607f1690620001e3565b634e487b7160e01b875260416004528587fd5b015190503880620001a9565b60088a52600080516020620034ba8339815191529250601f1984168a5b8181106200064a575090846001959493921062000630575b505050811b01600855620001bf565b015160001960f88460031b161c1916905538808062000621565b9293602060018192878601518155019501930162000609565b60088a52909150600080516020620034ba833981519152601f840160051c81019160208510620006ba575b90601f859493920160051c01905b818110620006ab575062000191565b8a81558493506001016200069c565b90915081906200068e565b634e487b7160e01b895260226004528789fd5b90607f16906200017a565b634e487b7160e01b885260416004528688fd5b9096906001600160401b0381116200071257895295386200014c565b634e487b7160e01b825260416004528682fd5b8a513d8a823e3d90fd5b8580fd5b8751631e4fbdf760e01b815260048101879052602490fd5b8480fd5b8380fd5b8280fd5b80fd5b600080fd5b601f909101601f19168101906001600160401b038211908210176200078357604052565b634e487b7160e01b600052604160045260246000fd5b51906001600160a01b03821682036200075a57565b919080601f840112156200075a5782516001600160401b038111620007835760209060405192620007e983601f19601f85011601856200075f565b8184528282870101116200075a5760005b8181106200081057508260009394955001015290565b8581018301518482018401528201620007fa56fe6080604052600436101561001257600080fd5b60003560e01c806302d05d3f146102e257806303ee438c146102dd57806306fdde03146102d8578063095ea7b3146102d35780630d35b415146102ce578063111ecdad146102c957806313137d65146102c4578063134d4f25146102bf578063156a0d0f146102ba57806317442b70146102b557806318160ddd146102b05780631f5e1334146102ab57806323b872dd146102a6578063313ce567146102a15780633400288b1461029c5780633b6f743b1461029757806340c10f191461029257806352ae2879146102105780635535d4611461028d5780635a0dfe4d146102885780635e280f11146102835780636fc1b31e1461027e57806370a0823114610279578063715018a6146102745780637d25a05e1461026f57806382413eac1461026a578063857749b0146102655780638da5cb5b1461026057806395d89b411461025b578063963efcaa146102565780639f68b96414610251578063a9059cbb1461024c578063b731ea0a14610247578063b98bd07014610242578063bb0b6a531461023d578063bc70b35414610238578063bd815db014610233578063c7c7f5b31461022e578063ca5eb5e114610229578063d045a0dc14610224578063d42438851461021f578063dd62ed3e1461021a578063f2fde38b14610215578063fc0c546a146102105763ff7bd03d1461020b57600080fd5b611c06565b610ef3565b611b7a565b611b27565b611ab7565b61196a565b6118d1565b611739565b611595565b611541565b611506565b61142b565b6113b6565b611381565b611365565b61132a565b61129e565b611275565b611259565b6111fb565b6111d4565b611179565b61113c565b6110cc565b611087565b61103f565b610fd1565b610ec0565b610d07565b610c89565b610c5f565b610bb8565b610b9c565b610b7e565b610b5c565b610b35565b610b19565b610951565b610884565b61072d565b6105b5565b610518565b610456565b6102f7565b60009103126102f257565b600080fd5b346102f25760003660031901126102f257600a546040516001600160a01b039091168152602090f35b90600182811c92168015610350575b602083101461033a57565b634e487b7160e01b600052602260045260246000fd5b91607f169161032f565b634e487b7160e01b600052604160045260246000fd5b606081019081106001600160401b0382111761038b57604052565b61035a565b6001600160401b03811161038b57604052565b604081019081106001600160401b0382111761038b57604052565b60a081019081106001600160401b0382111761038b57604052565b90601f801991011681019081106001600160401b0382111761038b57604052565b60005b83811061040d5750506000910152565b81810151838201526020016103fd565b90602091610436815180928185528580860191016103fa565b601f01601f1916010190565b90602061045392818152019061041d565b90565b346102f2576000806003193601126105155760405181600b5461047881610320565b908184526020926001916001811690816000146104f357506001146104b8575b6104b4856104a8818903826103d9565b60405191829182610442565b0390f35b929450600b83528483205b8284106104e057505050816104b4936104a8928201019338610498565b80548585018701529285019281016104c3565b60ff191686860152505050151560051b82010191506104a8816104b438610498565b80fd5b346102f257600080600319360112610515576040518160085461053a81610320565b908184526020926001916001811690816000146104f35750600114610569576104b4856104a8818903826103d9565b929450600883528483205b82841061059157505050816104b4936104a8928201019338610498565b8054858501870152928501928101610574565b6001600160a01b038116036102f257565b346102f25760403660031901126102f2576004356105d2816105a4565b602435331561065c576001600160a01b03821691821561064357336000908152600660205260409020829161060b91611d25565b611d25565b556040519081527f8c5be1e5ebec7d5bd14f71427d1e84f3dd0314c0f7b2291e5b200ac8c7c3b92560203392a3602060405160018152f35b604051634a1406b160e11b815260006004820152602490fd5b60405163e602df0560e01b815260006004820152602490fd5b908160e09103126102f25790565b93929161069e8560a081019360208091805184520151910152565b60409160a06040870152815180915260c086019160c08260051b880101936020809201936000915b8483106106ee575050505050509060606106ec9294019060208091805184520151910152565b565b909192939495848061071d6001938d60bf1990820301875285838c51805184520151918185820152019061041d565b98019301930191949392906106c6565b346102f2576020806003193601126102f2576004356001600160401b0381116102f25761075e903690600401610675565b90610767611c66565b50610770611c66565b50604051637e062a3560e11b8152908082600481305afa918215610852576004928291600091610857575b506040516318160ddd60e01b815293849182906001600160a01b03165afa9182156108525760009261081f575b506104b4906107d5611c4c565b9260008452818401526108036107e9611cc6565b946107f381611ce9565b5060406060820135910135612027565b909161080d611c4c565b92835282015260405193849384610683565b819250610844906104b4923d851161084b575b61083c81836103d9565b810190611ca0565b91906107c8565b503d610832565b611c94565b6108779150823d841161087d575b61086f81836103d9565b810190611c7f565b3861079b565b503d610865565b346102f25760003660031901126102f2576004546040516001600160a01b039091168152602090f35b60609060031901126102f257600490565b9181601f840112156102f2578235916001600160401b0383116102f257602083818601950101116102f257565b600319810160e081126102f2576060136102f257600491606435916001600160401b03906084358281116102f25781610926916004016108be565b9390939260a435610936816105a4565b9260c4359182116102f25761094d916004016108be565b9091565b61095a366108eb565b50929492506001600160a01b039190507f00000000000000000000000000000000000000000000000000000000000000008216338103610b0157833561099f81610c7b565b6109a881612081565b906020860135809203610ad85750506109d06109c483886127b6565b6001600160a01b031690565b916109f66109e66109e1838a6127c2565b6127d4565b6109ef87611ce9565b5084612808565b809760288311610a34575b50505050610a2f610a20600080516020612c2083398151915294611ce9565b95604051938493169683611cf3565b0390a3005b90610a5f9291610a59610a4960408a016120b9565b93610a538a611ce9565b9261282c565b92612848565b90803b156102f257604051633e5ac80960e11b8152916000918391829084908290610a8f908c8a600485016120c3565b03925af1801561085257600080516020612c2083398151915294610a2f92610a2092610abf575b88919650610a01565b80610acc610ad292610390565b806102e7565b38610ab6565b610ae181610c7b565b610afd60405192839263309afaf360e21b845260048401611cf3565b0390fd5b6040516391ac5e4f60e01b8152336004820152602490fd5b346102f25760003660031901126102f257602060405160028152f35b346102f25760003660031901126102f2576040805162b9270b60e21b815260016020820152f35b346102f25760003660031901126102f257604080516001815260026020820152f35b346102f25760003660031901126102f2576020600754604051908152f35b346102f25760003660031901126102f257602060405160018152f35b346102f25760603660031901126102f257600435610bd5816105a4565b602435610be1816105a4565b6044359060018060a01b0383166000526006602052610c04336040600020611d25565b54926000198410610c26575b610c1a935061210c565b60405160018152602090f35b828410610c4257610c3d83610c1a95033383612733565b610c10565b604051637dc7a0d960e11b815280610afd858733600485016120ee565b346102f25760003660031901126102f257602060405160128152f35b63ffffffff8116036102f257565b346102f25760403660031901126102f2577f238399d427b947898edb290f5ff0f9109849b1c3ba196a42e35f00c50a54b98b600435610cc781610c7b565b60243590610cd36121cf565b63ffffffff8116600052600160205281604060002055610cf860405192839283611cf3565b0390a1005b801515036102f257565b346102f2576040806003193601126102f2576004356001600160401b0381116102f257610d38903690600401610675565b90602435610d4581610cfd565b610d4d611c66565b506060830135833593610d5f85610c7b565b610d957f0000000000000000000000000000000000000000000000000000000000000000610d908187850135612783565b6127a3565b91808310610ea357508392610db1610e169693610dfb93612235565b90610dbb85610c7b565b610dc3611c66565b50610dcd85612081565b610de4610dd8611c59565b63ffffffff9097168752565b602086015285850152606084015215156080830152565b815180948192631bb8518b60e31b8352309060048401612380565b03817f00000000000000000000000000000000000000000000000000000000000000006001600160a01b03165afa908115610852576104b492600092610e74575b505191829182815181526020918201519181019190915260400190565b81610e959293503d8411610e9c575b610e8d81836103d9565b81019061236c565b9038610e57565b503d610e83565b826044918651916371c4efed60e01b835260048301526024820152fd5b346102f25760403660031901126102f257610ef1600435610ee0816105a4565b610ee86121cf565b602435906123ee565b005b346102f25760003660031901126102f2576020604051308152f35b6024359061ffff821682036102f257565b359061ffff821682036102f257565b90604051918260008254610f4181610320565b90818452602094600191600181169081600014610faf5750600114610f70575b5050506106ec925003836103d9565b600090815285812095935091905b818310610f975750506106ec9350820101388080610f61565b85548884018501529485019487945091830191610f7e565b925050506106ec94925060ff191682840152151560051b820101388080610f61565b346102f25760403660031901126102f2576104b461102b611026600435610ff781610c7b565b63ffffffff611004610f0e565b9116600052600360205260406000209061ffff16600052602052604060002090565b610f2e565b60405191829160208352602083019061041d565b346102f25760403660031901126102f257602061107d60043561106181610c7b565b6024359063ffffffff1660005260016020526040600020541490565b6040519015158152f35b346102f25760003660031901126102f2576040517f00000000000000000000000000000000000000000000000000000000000000006001600160a01b03168152602090f35b346102f25760203660031901126102f2577ff0be4f1e87349231d80c36b33f9e8639658eeaf474014dee15a3e6a4d4414197602060043561110c816105a4565b6111146121cf565b600480546001600160a01b0319166001600160a01b03929092169182179055604051908152a1005b346102f25760203660031901126102f257600435611159816105a4565b60018060a01b031660005260056020526020604060002054604051908152f35b346102f257600080600319360112610515576111936121cf565b80546001600160a01b03198116825581906001600160a01b03167f8be0079c531659141344cd1fd0a4f28419497f9722a3daafe3b4186f6b6457e08280a380f35b346102f25760403660031901126102f2576111f0600435610c7b565b602060405160008152f35b346102f25760a03660031901126102f257611215366108ad565b506064356001600160401b0381116102f2576112359036906004016108be565b50506020608435611245816105a4565b6040516001600160a01b0390911630148152f35b346102f25760003660031901126102f257602060405160068152f35b346102f25760003660031901126102f2576000546040516001600160a01b039091168152602090f35b346102f25760008060031936011261051557604051816009546112c081610320565b908184526020926001916001811690816000146104f357506001146112ef576104b4856104a8818903826103d9565b929450600983528483205b82841061131757505050816104b4936104a8928201019338610498565b80548585018701529285019281016112fa565b346102f25760003660031901126102f25760206040517f00000000000000000000000000000000000000000000000000000000000000008152f35b346102f25760003660031901126102f257602060405160008152f35b346102f25760403660031901126102f2576113ab6004356113a1816105a4565b602435903361210c565b602060405160018152f35b346102f25760003660031901126102f2576002546040516001600160a01b039091168152602090f35b9060206003198301126102f2576004356001600160401b03928382116102f257806023830112156102f25781600401359384116102f25760248460051b830101116102f2576024019190565b346102f257611439366113df565b906114426121cf565b61144b82611caf565b90604061145b60405193846103d9565b8383526020938484019060051b8301923684116102f25780915b84831061148557610ef18661260d565b6001600160401b039083358281116102f2578301916060833603126102f2578551926114b084610370565b80356114bb81610c7b565b84526114c88a8201610f1f565b8a850152868101359182116102f257019036601f830112156102f25788926114f7849336908581359101611d57565b87820152815201920191611475565b346102f25760203660031901126102f25763ffffffff60043561152881610c7b565b1660005260016020526020604060002054604051908152f35b346102f25760603660031901126102f25760043561155e81610c7b565b611566610f0e565b604435906001600160401b0382116102f2576104b49261158d61102b9336906004016108be565b929091611dfc565b61159e366113df565b60005b81811061160d57604051638e9e709960e01b8152600081600481335afa801561085257610afd916000916115ea575b50604051638351eea760e01b815291829160048301610442565b61160791503d806000833e6115ff81836103d9565b810190611fa1565b826115d0565b611618818385611eb2565b9061164a61164661162884611ce9565b60208501359063ffffffff1660005260016020526040600020541490565b1590565b6116df5761165c610100830183611eda565b9261166960e08201611f0c565b90611678610120820182611eda565b959095303b156102f2576000946116ae60c092604051998a9788968795633411683760e21b875260a08a01358a60048901611f27565b03920135305af1918215610852576001926116cc575b505b016115a1565b80610acc6116d992610390565b386116c4565b600191506116c6565b9160806106ec929493611728604060c0830197805184526001600160401b0360208201511660208501520151604083019060208091805184520151910152565b019060208091805184520151910152565b60803660031901126102f2576004356001600160401b0381116102f257611764903690600401610675565b6040806023193601126102f2576064359061177e826105a4565b611786611fff565b5061178f611c66565b50611798611fff565b506117a1611c66565b506060830135916117b28435610c7b565b6117e37f0000000000000000000000000000000000000000000000000000000000000000610d908185880135612783565b928084106118b45750331561189c57906118276104b49261180485336128a2565b61180e8587612235565b61181788611ce9565b916118213661270b565b92612a0c565b92611830611c4c565b948186528160208701527f85496b760a4b7f8d66384b9df21b381f5d1b1e79f229a47aaf4c232edc2fe59a61188f611869875193611ce9565b9385519181839233978460409194939263ffffffff606083019616825260208201520152565b0390a351928392836116e8565b8151634b637e8f60e11b815260006004820152602490fd5b836044918451916371c4efed60e01b835260048301526024820152fd5b346102f25760006020366003190112610515576004356118f0816105a4565b6118f86121cf565b6001600160a01b037f0000000000000000000000000000000000000000000000000000000000000000811691839190833b156119665760249083604051958694859363ca5eb5e160e01b85521660048401525af180156108525761195a575080f35b61196390610390565b80f35b8280fd5b611973366108eb565b5050509290303303611aa55761198c6109c485836127b6565b936119ad61199d6109e183856127c2565b6119a685611ce9565b5086612808565b91602882116119ee575b50506119d1600080516020612c2083398151915292611ce9565b6040516001600160a01b0390951694918291610a2f919083611cf3565b9082611a0d92610a59611a03604088016120b9565b93610a5388611ce9565b917f00000000000000000000000000000000000000000000000000000000000000006001600160a01b0316803b156102f257604051633e5ac80960e11b8152936000918591829084908290611a67908b8d600485016120c3565b03925af190811561085257600080516020612c20833981519152936119d192611a92575b50926119b7565b80610acc611a9f92610390565b38611a8b565b60405163029a949d60e31b8152600490fd5b346102f25760203660031901126102f2577fd48d879cef83a1c0bdda516f27b13ddb1b3f8bbac1c9e1511bb2a659c24277606020600435611af7816105a4565b611aff6121cf565b600280546001600160a01b0319166001600160a01b03929092169182179055604051908152a1005b346102f25760403660031901126102f2576020611b71600435611b49816105a4565b60243590611b56826105a4565b6001600160a01b031660009081526006845260409020611d25565b54604051908152f35b346102f25760203660031901126102f257600435611b97816105a4565b611b9f6121cf565b6001600160a01b039081168015611bed57600080546001600160a01b03198116831782559092167f8be0079c531659141344cd1fd0a4f28419497f9722a3daafe3b4186f6b6457e08380a380f35b604051631e4fbdf760e01b815260006004820152602490fd5b346102f25760603660031901126102f2576020611c22366108ad565b63ffffffff8135611c3281610c7b565b166000526001825260406000205482604051920135148152f35b604051906106ec826103a3565b604051906106ec826103be565b60405190611c73826103a3565b60006020838281520152565b908160209103126102f25751610453816105a4565b6040513d6000823e3d90fd5b908160209103126102f2575190565b6001600160401b03811161038b5760051b60200190565b604051602081018181106001600160401b0382111761038b576040526000815290565b3561045381610c7b565b6020909392919363ffffffff60408201951681520152565b6001600160a01b0316600090815260056020526040902090565b9060018060a01b0316600052602052604060002090565b6001600160401b03811161038b57601f01601f191660200190565b929192611d6382611d3c565b91611d7160405193846103d9565b8294818452818301116102f2578281602093846000960137010152565b602090836106ec939594956040519683611db189955180928880890191016103fa565b84019185830137016000838201520380855201836103d9565b908060209392818452848401376000828201840152601f01601f1916010190565b916020610453938181520191611dca565b611e2a9163ffffffff6110269216600052600360205260406000209061ffff16600052602052604060002090565b805115611e90578215611e8a576002831015611e5d5750610afd604051928392639a6d49cd60e01b845260048401611deb565b611e70611e6b368585611d57565b6126d3565b826002116102f25761045392600119019160020190611d8e565b91505090565b50610453913691611d57565b634e487b7160e01b600052603260045260246000fd5b9190811015611ed55760051b8101359061013e19813603018212156102f2570190565b611e9c565b903590601e19813603018212156102f257018035906001600160401b0382116102f2576020019181360383136102f257565b35610453816105a4565b6001600160401b038116036102f257565b929093611f83926001600160401b0360406104539a98999763ffffffff8135611f4f81610c7b565b168852602081013560208901520135611f6781611f16565b166040860152606085015260e0608085015260e0840191611dca565b6001600160a01b0390941660a082015280840360c090910152611dca565b6020818303126102f2578051906001600160401b0382116102f2570181601f820112156102f2578051611fd381611d3c565b92611fe160405194856103d9565b818452602082840101116102f25761045391602080850191016103fa565b6040519061200c82610370565b8160008152600060208201526040612022611c66565b910152565b61205690610d907f00000000000000000000000000000000000000000000000000000000000000008092612783565b9182918084106120635750565b83604491604051916371c4efed60e01b835260048301526024820152fd5b63ffffffff168060005260016020526040600020549081156120a1575090565b6024906040519063f6ff4fb760e01b82526004820152fd5b3561045381611f16565b610453939260809260018060a01b03168252602082015260006040820152816060820152019061041d565b604091949392606082019560018060a01b0316825260208201520152565b916001600160a01b03808416929083156121b657811693841561219d5761213281611d0b565b5483811061217f5761217a92849261215e600080516020612c4083398151915296612164940391611d0b565b55611d0b565b8054820190556040519081529081906020820190565b0390a3565b90610afd8460405193849363391434e360e21b8552600485016120ee565b60405163ec442f0560e01b815260006004820152602490fd5b604051634b637e8f60e11b815260006004820152602490fd5b6000546001600160a01b031633036121e357565b60405163118cdaa760e01b8152336004820152602490fd5b908160209103126102f2575161045381610cfd565b90916122276104539360408452604084019061041d565b91602081840391015261041d565b909161229961227761226b6122c0957f000000000000000000000000000000000000000000000000000000000000000090612783565b6001600160401b031690565b61228e61228760a0860186611eda565b3691611d57565b906020850135612945565b939092839460001461233c576002905b61158d6122b582611ce9565b916080810190611eda565b60045490926001600160a01b039091169083826122dc57505050565b60405163043a78eb60e01b8152926020928492839182916123009160048401612210565b03915afa8015610852576123115750565b6123329060203d602011612335575b61232a81836103d9565b8101906121fb565b50565b503d612320565b6001906122a9565b91908260409103126102f25760405161235c816103a3565b6020808294805184520151910152565b906040828203126102f25761045391612344565b906020909392936040835263ffffffff815116604084015281810151606084015260806123d46123be604084015160a08488015260e087019061041d565b6060840151868203603f190160a088015261041d565b910151151560c08401526001600160a01b03909416910152565b6001600160a01b0381169190821561219d576007549082820180921161243e5760009261242f602092600080516020612c4083398151915294600755611d0b565b818154019055604051908152a3565b61276d565b8051821015611ed55760209160051b010190565b90601f811161246557505050565b6000916000526020600020906020601f850160051c830194106124a3575b601f0160051c01915b82811061249857505050565b81815560010161248c565b9092508290612483565b91909182516001600160401b03811161038b576124d4816124ce8454610320565b84612457565b602080601f83116001146125175750819061250893949560009261250c575b50508160011b916000199060031b1c19161790565b9055565b0151905038806124f3565b90601f1983169561252d85600052602060002090565b926000905b88821061256a57505083600195969710612551575b505050811b019055565b015160001960f88460031b161c19169055388080612547565b80600185968294968601518155019501930190612532565b6020808201908083528351809252604092604081018260408560051b8401019601946000925b8584106125b9575050505050505090565b9091929394959685806125fc600193603f198682030188528b518760609163ffffffff815116845261ffff8682015116868501520151918189820152019061041d565b9901940194019295949391906125a8565b9060009160005b815181101561269957600190612693604061263b816126338588612443565b5101516126d3565b61268e816126498588612443565b5101519163ffffffff61265c8689612443565b515116895261ffff602091600383528a2091612678878a612443565b5101511661ffff16600052602052604060002090565b6124ad565b01612614565b507fbe4864a8e820971c0247f5992e2da559595f7bf076a21cb5928d443d2a13b6749192506126ce9060405191829182612582565b0390a1565b600361ffff600283015116036126e65750565b604051639a6d49cd60e01b815260206004820152908190610afd90602483019061041d565b60409060231901126102f25760405190612724826103a3565b60243582526044356020830152565b906001600160a01b038083161561065c578116156106435761060661276a9260018060a01b03166000526006602052604060002090565b55565b634e487b7160e01b600052601160045260246000fd5b811561278d570490565b634e487b7160e01b600052601260045260246000fd5b8181029291811591840414171561243e57565b906020116102f2573590565b906028116102f2576020013560c01c90565b610453906001600160401b037f000000000000000000000000000000000000000000000000000000000000000091166127a3565b816001600160a01b03821615612822575b610453916123ee565b61dead9150612819565b90806028116102f2576104539136916027190190602801611d57565b604c91936104539360405195869360018060c01b03199060c01b16602085015263ffffffff60e01b9060e01b166028840152602c83015261289281518092602086860191016103fa565b810103602c8101845201826103d9565b6001600160a01b03811690816128eb57506007549180830180931161243e576020600080516020612c40833981519152916000946007555b8060075403600755604051908152a3565b92916128f684611d0b565b54938185106129275781602091612921600080516020612c4083398151915294600097980391611d0b565b556128da565b610afd859260405193849363391434e360e21b8552600485016120ee565b825115801593906129a05761299d91606891604051948592602084015260018060c01b03199060c01b16604083015233604883015261298d81518092602086860191016103fa565b81010360488101845201826103d9565b91565b509060405191602083015260018060c01b03199060c01b1660408201526028815261299d81610370565b906080828203126102f257612a049060408051936129e785610370565b8051855260208101516129f981611f16565b602086015201612344565b604082015290565b612a6960809492612a859694612a20611fff565b506020612a2d8651612afd565b950191825180612aee575b50612a4285612081565b9251151592612a52610dd8611c59565b602086015260408501526060840152151585830152565b6040518095819482936302637a4560e41b845260048401612380565b03917f00000000000000000000000000000000000000000000000000000000000000006001600160a01b03165af190811561085257600091612ac5575090565b610453915060803d608011612ae7575b612adf81836103d9565b8101906129ca565b503d612ad5565b612af790612b1f565b38612a38565b803403612b075790565b6040516304fb820960e51b8152346004820152602490fd5b60405163393f876560e21b81526001600160a01b037f0000000000000000000000000000000000000000000000000000000000000000811691602081600481865afa90811561085257600091612c00575b5016918215612bee5760209160009160405190848201926323b872dd60e01b84523360248401526044830152606482015260648152612bae816103be565b519082855af115611c94576000513d612be55750803b155b612bcd5750565b60249060405190635274afe760e01b82526004820152fd5b60011415612bc6565b6040516329b99a9560e11b8152600490fd5b612c19915060203d60201161087d5761086f81836103d9565b38612b7056feefed6d3500546b29533b128a29e3a94d70788727f0507505ac12eaf2e578fd9cddf252ad1be2c89b69c2b068fc378daa952ba7f163c4a11628f55a4df523b3efa2646970667358221220c6accbc32c52bf7420cc738915797cbe3a91f59aabbe3b97f700093a752e482764736f6c63430008160033f3f7a9fe364faab93b216da50a3214154f22a0a2b415b23a84c8169e8b636ee36e1540171b6c0c960b71a7020d9f60077f6af931a8bbf590da0223dacf75c7afa2646970667358221220ff66d9c56571566f665b9cac2b2e2369113aec64c8564c1c9a6a8d8fab6366d464736f6c63430008160033",
  "devdoc": {
    "errors": {
      "OwnableInvalidOwner(address)": [
        {
          "details": "The owner is not a valid owner account. (eg. `address(0)`)"
        }
      ],
      "OwnableUnauthorizedAccount(address)": [
        {
          "details": "The caller account is not authorized to perform an operation."
        }
      ],
      "SafeERC20FailedOperation(address)": [
        {
          "details": "An operation with an ERC-20 token failed."
        }
      ]
    },
    "kind": "dev",
    "methods": {
      "allowInitializePath((uint32,bytes32,uint64))": {
        "details": "This indicates to the endpoint that the OApp has enabled msgs for this particular path to be received.This defaults to assuming if a peer has been set, its initialized. Can be overridden by the OApp if there is other logic to determine this.",
        "params": {
          "origin": "The origin information containing the source endpoint and sender address."
        },
        "returns": {
          "_0": "Whether the path has been initialized."
        }
      },
      "isComposeMsgSender((uint32,bytes32,uint64),bytes,address)": {
        "details": "_origin The origin information containing the source endpoint and sender address.  - srcEid: The source chain endpoint ID.  - sender: The sender address on the src chain.  - nonce: The nonce of the message._message The lzReceive payload.Applications can optionally choose to implement separate composeMsg senders that are NOT the bridging layer.The default sender IS the OAppReceiver implementer.",
        "params": {
          "_sender": "The sender address."
        },
        "returns": {
          "_0": "isSender Is a valid sender."
        }
      },
      "lzReceive((uint32,bytes32,uint64),bytes32,bytes,address,bytes)": {
        "details": "Entry point for receiving messages or packets from the endpoint.Entry point for receiving msg/packet from the LayerZero endpoint.",
        "params": {
          "_executor": "The address of the executor for the received message.",
          "_extraData": "Additional arbitrary data provided by the corresponding executor.",
          "_guid": "The unique identifier for the received LayerZero message.",
          "_message": "The payload of the received message.",
          "_origin": "The origin information containing the source endpoint and sender address.  - srcEid: The source chain endpoint ID.  - sender: The sender address on the src chain.  - nonce: The nonce of the message."
        }
      },
      "nextNonce(uint32,bytes32)": {
        "details": "_srcEid The source endpoint ID._sender The sender address.The path nonce starts from 1. If 0 is returned it means that there is NO nonce ordered enforcement.Is required by the off-chain executor to determine the OApp expects msg execution is ordered.This is also enforced by the OApp.By default this is NOT enabled. ie. nextNonce is hardcoded to return 0.",
        "returns": {
          "nonce": "The next nonce."
        }
      },
      "oAppVersion()": {
        "returns": {
          "receiverVersion": "The version of the OAppReceiver.sol implementation.",
          "senderVersion": "The version of the OAppSender.sol implementation."
        }
      },
      "owner()": {
        "details": "Returns the address of the current owner."
      },
      "renounceOwnership()": {
        "details": "Leaves the contract without owner. It will not be possible to call `onlyOwner` functions. Can only be called by the current owner. NOTE: Renouncing ownership will leave the contract without an owner, thereby disabling any functionality that is only available to the owner."
      },
      "setDelegate(address)": {
        "details": "Only the owner/admin of the OApp can call this function.Provides the ability for a delegate to set configs, on behalf of the OApp, directly on the Endpoint contract.",
        "params": {
          "_delegate": "The address of the delegate to be set."
        }
      },
      "setPeer(uint32,bytes32)": {
        "details": "Only the owner/admin of the OApp can call this function.Indicates that the peer is trusted to send LayerZero messages to this OApp.Set this to bytes32(0) to remove the peer address.Peer is a bytes32 to accommodate non-evm chains.",
        "params": {
          "_eid": "The endpoint ID.",
          "_peer": "The address of the peer to be associated with the corresponding endpoint."
        }
      },
      "transferOwnership(address)": {
        "details": "Transfers ownership of the contract to a new account (`newOwner`). Can only be called by the current owner."
      }
    },
    "version": 1
  },
  "userdoc": {
    "kind": "user",
    "methods": {
      "allowInitializePath((uint32,bytes32,uint64))": {
        "notice": "Checks if the path initialization is allowed based on the provided origin."
      },
      "endpoint()": {
        "notice": "Retrieves the LayerZero endpoint associated with the OApp."
      },
      "isComposeMsgSender((uint32,bytes32,uint64),bytes,address)": {
        "notice": "Indicates whether an address is an approved composeMsg sender to the Endpoint."
      },
      "nextNonce(uint32,bytes32)": {
        "notice": "Retrieves the next nonce for a given source endpoint and sender address."
      },
      "oAppVersion()": {
        "notice": "Retrieves the OApp version information."
      },
      "peers(uint32)": {
        "notice": "Retrieves the peer (OApp) associated with a corresponding endpoint."
      },
      "setDelegate(address)": {
        "notice": "Sets the delegate address for the OApp."
      },
      "setPeer(uint32,bytes32)": {
        "notice": "Sets the peer address (OApp instance) for a corresponding endpoint."
      }
    },
    "version": 1
  },
  "storageLayout": {
    "storage": [
      {
        "astId": 3841,
        "contract": "contracts/Factory.sol:Factory",
        "label": "_owner",
        "offset": 0,
        "slot": "0",
        "type": "t_address"
      },
      {
        "astId": 1390,
        "contract": "contracts/Factory.sol:Factory",
        "label": "peers",
        "offset": 0,
        "slot": "1",
        "type": "t_mapping(t_uint32,t_bytes32)"
      },
      {
        "astId": 5303,
        "contract": "contracts/Factory.sol:Factory",
        "label": "totalTokens",
        "offset": 0,
        "slot": "2",
        "type": "t_uint256"
      },
      {
        "astId": 5308,
        "contract": "contracts/Factory.sol:Factory",
        "label": "nativeLiquidityPool",
        "offset": 0,
        "slot": "3",
        "type": "t_contract(NativeLiquidityPool)7399"
      },
      {
        "astId": 5311,
        "contract": "contracts/Factory.sol:Factory",
        "label": "tokens",
        "offset": 0,
        "slot": "4",
        "type": "t_array(t_address)dyn_storage"
      },
      {
        "astId": 5316,
        "contract": "contracts/Factory.sol:Factory",
        "label": "tokenToSale",
        "offset": 0,
        "slot": "5",
        "type": "t_mapping(t_address,t_struct(TokenSale)5356_storage)"
      },
      {
        "astId": 5322,
        "contract": "contracts/Factory.sol:Factory",
        "label": "userTokenContributions",
        "offset": 0,
        "slot": "6",
        "type": "t_mapping(t_address,t_mapping(t_address,t_uint256))"
      },
      {
        "astId": 5328,
        "contract": "contracts/Factory.sol:Factory",
        "label": "userEthContributions",
        "offset": 0,
        "slot": "7",
        "type": "t_mapping(t_address,t_mapping(t_address,t_uint256))"
      },
      {
        "astId": 5334,
        "contract": "contracts/Factory.sol:Factory",
        "label": "hasClaimedReward",
        "offset": 0,
        "slot": "8",
        "type": "t_mapping(t_address,t_mapping(t_address,t_bool))"
      },
      {
        "astId": 5339,
        "contract": "contracts/Factory.sol:Factory",
        "label": "tokenContributors",
        "offset": 0,
        "slot": "9",
        "type": "t_mapping(t_address,t_array(t_address)dyn_storage)"
      }
    ],
    "types": {
      "t_address": {
        "encoding": "inplace",
        "label": "address",
        "numberOfBytes": "20"
      },
      "t_array(t_address)dyn_storage": {
        "base": "t_address",
        "encoding": "dynamic_array",
        "label": "address[]",
        "numberOfBytes": "32"
      },
      "t_bool": {
        "encoding": "inplace",
        "label": "bool",
        "numberOfBytes": "1"
      },
      "t_bytes32": {
        "encoding": "inplace",
        "label": "bytes32",
        "numberOfBytes": "32"
      },
      "t_contract(NativeLiquidityPool)7399": {
        "encoding": "inplace",
        "label": "contract NativeLiquidityPool",
        "numberOfBytes": "20"
      },
      "t_mapping(t_address,t_array(t_address)dyn_storage)": {
        "encoding": "mapping",
        "key": "t_address",
        "label": "mapping(address => address[])",
        "numberOfBytes": "32",
        "value": "t_array(t_address)dyn_storage"
      },
      "t_mapping(t_address,t_bool)": {
        "encoding": "mapping",
        "key": "t_address",
        "label": "mapping(address => bool)",
        "numberOfBytes": "32",
        "value": "t_bool"
      },
      "t_mapping(t_address,t_mapping(t_address,t_bool))": {
        "encoding": "mapping",
        "key": "t_address",
        "label": "mapping(address => mapping(address => bool))",
        "numberOfBytes": "32",
        "value": "t_mapping(t_address,t_bool)"
      },
      "t_mapping(t_address,t_mapping(t_address,t_uint256))": {
        "encoding": "mapping",
        "key": "t_address",
        "label": "mapping(address => mapping(address => uint256))",
        "numberOfBytes": "32",
        "value": "t_mapping(t_address,t_uint256)"
      },
      "t_mapping(t_address,t_struct(TokenSale)5356_storage)": {
        "encoding": "mapping",
        "key": "t_address",
        "label": "mapping(address => struct Factory.TokenSale)",
        "numberOfBytes": "32",
        "value": "t_struct(TokenSale)5356_storage"
      },
      "t_mapping(t_address,t_uint256)": {
        "encoding": "mapping",
        "key": "t_address",
        "label": "mapping(address => uint256)",
        "numberOfBytes": "32",
        "value": "t_uint256"
      },
      "t_mapping(t_uint32,t_bytes32)": {
        "encoding": "mapping",
        "key": "t_uint32",
        "label": "mapping(uint32 => bytes32)",
        "numberOfBytes": "32",
        "value": "t_bytes32"
      },
      "t_string_storage": {
        "encoding": "bytes",
        "label": "string",
        "numberOfBytes": "32"
      },
      "t_struct(TokenSale)5356_storage": {
        "encoding": "inplace",
        "label": "struct Factory.TokenSale",
        "members": [
          {
            "astId": 5341,
            "contract": "contracts/Factory.sol:Factory",
            "label": "token",
            "offset": 0,
            "slot": "0",
            "type": "t_address"
          },
          {
            "astId": 5343,
            "contract": "contracts/Factory.sol:Factory",
            "label": "name",
            "offset": 0,
            "slot": "1",
            "type": "t_string_storage"
          },
          {
            "astId": 5345,
            "contract": "contracts/Factory.sol:Factory",
            "label": "metadataURI",
            "offset": 0,
            "slot": "2",
            "type": "t_string_storage"
          },
          {
            "astId": 5347,
            "contract": "contracts/Factory.sol:Factory",
            "label": "creator",
            "offset": 0,
            "slot": "3",
            "type": "t_address"
          },
          {
            "astId": 5349,
            "contract": "contracts/Factory.sol:Factory",
            "label": "sold",
            "offset": 0,
            "slot": "4",
            "type": "t_uint256"
          },
          {
            "astId": 5351,
            "contract": "contracts/Factory.sol:Factory",
            "label": "raised",
            "offset": 0,
            "slot": "5",
            "type": "t_uint256"
          },
          {
            "astId": 5353,
            "contract": "contracts/Factory.sol:Factory",
            "label": "isOpen",
            "offset": 0,
            "slot": "6",
            "type": "t_bool"
          },
          {
            "astId": 5355,
            "contract": "contracts/Factory.sol:Factory",
            "label": "isLiquidityCreated",
            "offset": 1,
            "slot": "6",
            "type": "t_bool"
          }
        ],
        "numberOfBytes": "224"
      },
      "t_uint256": {
        "encoding": "inplace",
        "label": "uint256",
        "numberOfBytes": "32"
      },
      "t_uint32": {
        "encoding": "inplace",
        "label": "uint32",
        "numberOfBytes": "4"
      }
    }
  }
}